:020000040800F2
:10000000C007002099010008572700087920000840
:100010005527000889070008632D0008000000002C
:10002000000000000000000000000000A52A0008F9
:10003000070B00080000000059270008BF2A00082D
:10004000B3010008B3010008B3010008B3010008C0
:10005000B3010008B3010008B3010008B3010008B0
:10006000B3010008B3010008B3010008B3010008A0
:10007000B3010008B3010008B3010008B301000890
:10008000B3010008B3010008B3010008B301000880
:10009000B3010008B3010008B3010008B301000870
:1000A000B3010008B3010008B3010008B301000860
:1000B000B3010008B3010008B3010008B301000850
:1000C000B3010008B3010008B3010008B301000840
:1000D000B3010008B3010008B3010008B301000830
:1000E000090B0008B3010008B301000800F002F892
:1000F00000F043F80AA090E8000C82448344AAF17F
:100100000107DA4501D100F038F8AFF2090EBAE87C
:100110000F0013F0010F18BFFB1A43F0010318473B
:100120005C3A00007C3A0000103A24BF78C878C1DD
:10013000FAD8520724BF30C830C144BF04680C60ED
:10014000704700000023002400250026103A28BF35
:1001500078C1FBD8520728BF30C148BF0B60704739
:10016000642900F0EB80002070471FB59DE8030074
:1001700000F0AAF91FBD10B510BD00F079FA1146C4
:10018000FFF7F3FF02F050FE00F097FA03B4FFF719
:10019000F2FF03BC00F0C8FA09488047094800474D
:1001A000FEE7FEE7FEE7FEE7FEE7FEE7FEE7FEE727
:1001B000FEE7FEE704480549054A064B7047000084
:1001C0001D2B0008ED000008C0010020C007002022
:1001D000C0030020C003002070B5064600F058F9A7
:1001E000056806F10B0020F00704B4429CBF002014
:1001F00070BD2B466A68BAB11068A04210D304F1F2
:10020000080188423CBF5068586007D351681019F4
:1002100041601168091B016058601460101D70BDB9
:1002200013465268002AE7D12146284600F038F9E3
:100230000028DED170BD70B50446051F00F028F916
:100240000068002C14BF446870BD002C18BFAC427D
:100250003CBF20466468F8D301680A18AA4218BF58
:10026000456003D12A680546114401602868411998
:10027000A1421CBF6C6070BD616869602168084460
:10028000286070BDB2F120030AD5C2F1200320FA24
:1002900002F001FA03F321FA02F140EA0300704789
:1002A00021FA03F04FF00001704700000FB41CB5B5
:1002B000074B06AA7B4469460090059800F099F91F
:1002C0000020694600F0A8F91CBC5DF814FB000092
:1002D000610300002DE9F0410E4604460020206233
:1002E0002046E168884730B3252805D0D4E90121AC
:1002F0009047206A401CF2E7E168204600278847C3
:10030000050018D0A5F14100192802D820354FF476
:1003100000673246294620462760FFF721FF40B19B
:10032000012804D0F61D26F007060836D8E7361D4A
:10033000D6E72846DAE7206ABDE8F0812DE9F041EA
:100340000646002410687529314616A510D0AFF373
:100350000080002802DA404213A507E031688A07CE
:1003600001D512A502E0490704D511A5012401E039
:10037000AFF3008000210A2206F1240709E0B0FB58
:10038000F2FCB0FBF2F302FB1C003030785418464C
:10039000491C0028F3D123462A463046BDE8F041E7
:1003A00000F0C8B8000000002D0000002B00000085
:1003B0002000000040EA0103024630B59B0710D13F
:1003C0004FF0013400E008C208C91D1B9D4315EA27
:1003D000C41FF8D013F0FF0102F8011B0DD01B0A57
:1003E000F8E711F8013B002B02F8013B05D011F8AA
:1003F000013B002B02F8013BF3D130BD10B5431C8B
:1004000002E010F8011B71B18107FAD14FF00132FF
:1004100002C88C1A8C4314EAC211F9D0C01A0A0619
:1004200003D0C01E10BDC01A10BD0A0401D0801E2A
:1004300010BD0902FCD0401E10BD4FF0000200B5F7
:10044000134694469646203922BFA0E80C50A0E8F7
:100450000C50B1F12001BFF4F7AF090728BFA0E8A5
:100460000C5048BF0CC05DF804EB890028BF40F871
:10047000042B08BF704748BF20F8022B11F0804FB3
:1004800018BF00F8012B7047704770477047000095
:1004900000487047680100207047704770477047F8
:1004A00038B504460A4600206946AFF300800028AC
:1004B00008BF38BD02460099204600F0B7F8012079
:1004C00038BD012000F0CCB8F8B5AFF30080054688
:1004D00000200C46102000BF0646A819A0420DD9E6
:1004E000324669460020AFF30080070008BF00F0E5
:1004F000B7F80098A04218BF0546C419FFF7C8FF17
:1005000005600746F01D20F007004619284600F058
:100510000AF8B44208BFF8BDA21B31463868BDE8EE
:10052000F84000F083B800210160C0E90110704775
:10053000102070472DE9F0470D4699469246044633
:1005400000F124080168880604D5E06921F0100153
:10055000216000E00120A84201DD471B00E00027E8
:10056000A1697A1902EB0900081AA0612078C00677
:1005700002D42046AFF30080002608E0D4E9012130
:100580001AF806009047206A401C761C20624E45EF
:10059000F4DB2078C0060AD52046AFF3008006E0E1
:1005A000D4E9012130209047206A401C2062381E87
:1005B000A7F10107F4DC07E0D4E9012118F80500F0
:1005C0009047206A401C2062281EA5F10105F3DC3B
:1005D0002046AFF300802078000602D50220BDE857
:1005E000F0870120FBE7000001694A1C02610878DE
:1005F000704700B58FB0CDE9013100210591054963
:100600007944CDE9031011466846FFF763FE0FB049
:1006100000BD0000E5FFFFFF0A6802F8010B0A6059
:1006200070470000004870476001002003464068A2
:100630008C46002818BF88423CBF03464068F8D368
:1006400018681844884207D00CF1030020F0070016
:10065000001D411A521A0146081D0A60FFF7EBBD42
:1006600010B500F039F8BDE8104000F02FB8704721
:100670007546FFF7D7FFAE4605006946534620F0A2
:100680000700854618B020B5FFF794FDBDE820406F
:100690004FF000064FF000074FF000084FF0000B3E
:1006A00021F00701AC46ACE8C009ACE8C009ACE8F1
:1006B000C009ACE8C0098D46704710B50446AFF3D9
:1006C00000802046BDE81040FFF760BD002801D043
:1006D00000F02AB87047000010B5012805D00021AD
:1006E00003A000F027F8012010BD09A1F8E70000E1
:1006F00053494752544D454D3A204F7574206F660B
:100700002068656170206D656D6F72790000000072
:100710003A2048656170206D656D6F727920636F56
:10072000727275707465640001491820ABBEFEE7F3
:100730002600020070B505460C460A2000E06D1C3C
:1007400000F011F835B128780028F8D102E0641CD7
:1007500000F009F814B120780028F8D1BDE8704005
:100760000A20AFF3008008B569468DF80000032029
:10077000ABBE08BD10B5142002F000F80321BDE89F
:100780001040142002F08FB9FEE700002DE9FF4170
:100790004FF47A77DFF878827E009E4CB51000BF68
:1007A00001F0CDFD012000F08BFA0121084601F097
:1007B000E7FD99A001F0FCFD304600F081FA01F060
:1007C000BEFD284600F07CFA97A2C821012002F065
:1007D000F7FA00BF01F0F0FF18286ED01928F9D001
:1007E00001F0ADFD012000F06BFA0221012001F0C3
:1007F000C7FD9AA001F0DCFDC82000F061FA684650
:1008000002F0D0FFC82000F05BFA062202A94046A1
:1008100000F01BFA0622694602A800F059F90128E7
:100820004FF000014FF002001CD001F0A9FD8FA095
:1008300001F0BEFD0621022001F0A2FD90A001F012
:10084000B7FD01221146204600F001FC284600F0C9
:1008500037FA00220121204600F0F9FB384600F06B
:100860002FFA9DE701F08CFD80A001F0A1FD05218C
:10087000022001F085FD84A001F09AFD01221146BD
:10088000204600F0E4FB642000F01AFA0022012167
:10089000204600F0DCFBC82000F012FA01221146CD
:1008A000204600F0D4FB642000F00AFA0022012167
:1008B000204600F0CCFB38461AE0A1E001F03FFDF5
:1008C000012000F0FDF90321012001F059FD70A085
:1008D00001F06EFD01221146204600F0B8FB2846CB
:1008E00000F0EEF900220121204600F0B0FB304676
:1008F00000F0E6F901F023FD012000F0E1F902210A
:10090000012001F03DFD66A001F052FD642000F0E1
:10091000D7F9674802F046FFC82000F0D1F901F08E
:100920000EFD012000F0CCF90121084601F028FD60
:1009300060A001F03DFD642000F0C2F95C480C307D
:1009400002F030FFC82000F0BBF9594906220C31F3
:10095000574800F0BDF80028B0D0554906220C31A8
:10096000534800F0B5F801284AD14546404600F00A
:1009700059F906224E49284600F078F901F0DFFCCB
:10098000012000F09DF90321012001F0F9FC4DA0A8
:1009900001F00EFD01221146204600F058FBC82050
:1009A00000F08EF900220121204600F050FBC82003
:1009B00000F086F901221146204600F048FBC820CD
:1009C00000F07EF900220121204600F040FB4FF4A8
:1009D000967000F075F901221146204600F037FBB1
:1009E0004FF4C87000F06CF900220121204600F09D
:1009F0002EFB384600F064F92D4900200E390860BE
:100A000001F09DFC04B00120BDE8F04100F058B9B0
:100A100000F80008000C0140524553455420504155
:100A20005353574F524421002020205052455353D6
:100A300020414E59204B455920544F20434F4E469C
:100A400049524D204F5220505245535320272327BF
:100A500020544F2045584954000000004F6C64203A
:100A600050617373776F7264210000002020202092
:100A700020202020202020202020202000000000F6
:100A80004641494C00000000434F52524543540038
:100A90004E4F54204D415443482021210000000076
:100AA0004E65772050617373776F726400000000A9
:100AB0000E00002052655F4E65772050617373779A
:100AC0006F7264005375636365737366756C2100A0
:100AD00070B504460120002306E0E55CCE5CB5421B
:100AE00001D0002070BD5B1C9342F6D370BD70B581
:100AF0000C46054601F042FE20EA04012846BDE806
:100B0000704002F02FB970474FF4004000F09EB9DA
:100B100006490020C8610648016941F004010161ED
:100B2000016941F04001016170470000400100206F
:100B300000200240064A0021D16106490A6942F0BC
:100B400002020A614861086940F04000086170478C
:100B50004001002000200240044B0022DA61044AD8
:100B6000136943F0010313610180704740010020C5
:100B70000020024014480022C168CB06134904D566
:100B8000CA6942F00202CA611022C3685B0705D538
:100B9000CB6943F00103CB6142F00402C369DB0778
:100BA00007D0CB6943F00403CB61C16921F0010197
:100BB000C161A2F58071013901D0C2607047C1697D
:100BC00021F00101C1617047002002404001002076
:100BD00070B5054600F040FA0646114C09E0681C65
:100BE00007D025B100F038FA801BA84201D90320B4
:100BF00070BDE068C007F2D1E068800601D5202012
:100C0000E060E068C00605D4E069C00702D1E06892
:100C1000400703D5FFF7AEFF012070BD002070BD77
:100C20000020024010B586B0044600F0F9F801201B
:100C3000CDE9024001900020009004A9684600F030
:100C400051F800F0A3F806B010BD10B50023521CF7
:100C500005E030F813405B1C21F8024B9BB2B3EB6C
:100C6000520FF6D310BD0088C0B270472DE9F04195
:100C700016460D46074600F0D3F80024761C09E01E
:100C80002A8807EB44010023012000F089F8641C46
:100C9000A4B2AD1CB4EB560FF2D3BDE8F04100F0A6
:100CA00075B870B50C46054600F0BAF82246002328
:100CB0002946012000F074F8BDE8704000F066B8E5
:100CC00070B5044600F0C8F90546601C02D004481F
:100CD0000078044400F0C0F9401BA042FAD370BD74
:100CE000280000202DE9F047054626480F4601263A
:100CF000017E01290FD00121814601762868DFF8A5
:100D000088804CF25034022808D0A2462046FFF7D3
:100D10005FFFA8B131E00220BDE8F0872046FFF771
:100D200057FF08BB0120FFF7F3FE2046FFF750FFF7
:100D3000D8F81010064621F00401C8F810101CE085
:100D40004FF0FF303860AC6811E02046FFF7F2FE4C
:100D50005046FFF73DFFD8F81010060021F00201C1
:100D6000C8F8101001D03C6007E004F58064D5E9B4
:100D7000020100EB8120A042E7D8002189F8181079
:100D80003046C9E7400100200020024003480169C5
:100D900041F0800101610020704700000020024006
:100DA0002DE9F05F07461C4888460024017E154661
:100DB0001E46012909D00121814601764CF2503AA4
:100DC0005046FFF705FF18B122E00220BDE8F09F72
:100DD000012F02D0022F00D00427D346DFF83CA019
:100DE000220128463146FFF74DFA81B208EB440054
:100DF000FFF7B2FE5846FFF7EBFEDAF8102022F0BC
:100E00000102CAF8102018B9641CE4B2BC42E7D34E
:100E1000002289F81820D9E7400100200020024074
:100E2000064900200A69120607D5054A4A60054AA4
:100E30004A600969090600D5012070470020024078
:100E400023016745AB89EFCD70470000044910B519
:100E50000A68024202D00860FFF7F6FF10BD0000EA
:100E6000140401402DE9F84FDFF8B8910024A9F1EE
:100E7000040B23460F2709F1040AABF1040EC9E065
:100E80000125A5402A40AA427DD1674ED1F804C071
:100E9000ACEB0608B44532D014DCBCF1030F3AD0F9
:100EA00009DCBCF1000F2AD0BCF1010F1CD0BCF151
:100EB000020F31D11DE0BCF1110F17D0BCF1120FA0
:100EC0002AD119E0B8F5881F19D006DCB8F5803FA3
:100ED00015D0B8F5801F1FD111E0B8F5001F0ED056
:100EE000B8F5041F18D10AE0CB6815E0CB681B1DCC
:100EF00012E0CB6808330FE0CB680C330CE08B6852
:100F00002BB1012B4FF0080303D0456104E004230B
:100F100002E0056100E00023FF2A01D8064601E057
:100F200000F104064FEA840501D9A5F12005D6F8A1
:100F3000008007FA05FC28EA0C0803FA05F548EAE0
:100F40000508C6F800804D68ED0062D5374DAE69E2
:100F500046F00106AE61AD6924F0030605F0010517
:100F60000095334D06EB050CDCF80850A607360F4C
:100F700007FA06F825EA0805DFF8B880404503D1EE
:100F80004FF0000817E044E0DFF8AC80404502D1A4
:100F90004FF001080FE0DFF8A480404502D14FF088
:100FA000020808E0DFF89880404502D14FF00308BE
:100FB00001E04FF0040808FA06F848EA0508CCF802
:100FC00008804D68D9F80060ED024D4601D5164302
:100FD00000E096432E604D68DAF80060AD02554699
:100FE00001D5164300E096432E604D68DBF80060A3
:100FF000AD035D4601D5164300E096432E604D6873
:10100000DEF80060ED03754601D5164300E0964317
:101010002E60641C0D682A46E5407FF431AFBDE8C0
:10102000F88F000008040140000011100010024079
:101030000000014000080140000C01400010014088
:10104000001401408068084000D0012070470AB1B8
:10105000016170470904FBE70148806870470000A0
:101060002800002070B5040025D094F83D0000252C
:1010700020B984F83C50204600F04EF9242084F832
:101080003D002068016821F00101016020680168CD
:1010900041F4004101602068016821F400410160D1
:1010A00000F098FA4D4A6168914201D84C4900E03D
:1010B0004C49884201D2012070BD4B492368B0FBE6
:1010C000F1F15E6826F03F060E435E60636893426E
:1010D00006D94FF4967359434FF47A73B1FBF3F189
:1010E0002368491C1E6A26F03F0631431962616875
:1010F000914210D84900401EB0FBF1F2521CC2F3DD
:101100000B02042A01D2042022E0B0FBF1F0401CC3
:10111000C0F30B001CE0A268F2B301EBC10303EBC8
:101120000116431EB3FBF6F35B1C43F480431B051F
:1011300049D092B301EBC10202EB0111401EB0FB9A
:10114000F1F0401CC0F30B0040F4804040F400403C
:101150002168CA694CF6FF739A431043C861D4E909
:10116000071001432068026822F0C00211430160A9
:10117000D4E9030101432068826848F2FF339A43AF
:1011800011438160D4E9050108432168CA6822F04F
:10119000FF021043C86001E00EE016E0206801681D
:1011A00041F0010101602564202084F83D002563A1
:1011B00084F83E50002070BD01EB4106431EB3FB96
:1011C000F6F35B1CB3E70120C2E701EB4101401ECF
:1011D000B0FBF1F0401CC0F30B00B7E7A0860100A4
:1011E00080841E0000093D0040420F002DE9F84FA9
:1011F0001F4690468A460446DDF82890FFF72CFFEC
:10120000054694F83D0020287FD11923012240494A
:101210002046009500F0C2FF002876D194F83C00EB
:10122000012872D0012084F83C0020680168C907B9
:1012300003D1016841F0010101602068016821F4D7
:1012400000610160212084F83D00102084F83E00F8
:1012500000262664C4F824806785608D20852D488B
:10126000E0622B464A465146204600F01DFF90B9E9
:10127000206841698069009036E02A464946204648
:1012800001F032F850B1206C042804D120680168C4
:1012900041F4007101600120BDE8F88F606A2168A7
:1012A00000780861606A401C6062618D491E61853A
:1012B000218D491E89B2218522685369DB435B0772
:1012C0000BD451B100781061606A401C6062608D7F
:1012D000401E6085208D401E20852A4649462046B6
:1012E00000F030FF0028CED1208D0028C5D154F861
:1012F0003D0B016841F400710160202004F81E09D3
:10130000E67766770020C7E7FFE70220C4E7000022
:10131000020010000000FFFF10B586B00021009110
:101320000191029103910068104988421BD1104C31
:10133000A06940F00800A061A069694600F00800BB
:1013400004904FF44060009012200190032003901D
:101350000848FFF787FDE06940F48000E061E0693C
:1013600000F48000049006B010BD0000005800405A
:1013700000100240000C01400248816802781144CC
:101380008160704728000020074810B5016841F0CF
:1013900010010160032000F075F80F2000F006F83E
:1013A00000F024F8002010BD0020024070B50D4D63
:1013B00004464FF47A712878B1FBF0F00A490968C5
:1013C000B1FBF0F000F058FC48B9102C07D2002215
:1013D0002146501E00F036F800206C6070BD0120E0
:1013E00070BD000028000020340000200C4808B523
:1013F000816941F001018161816901F00101009180
:10140000C16941F08051C161C06900F08050009015
:101410000448416821F0E06141F00071416008BD7D
:101420000010024000000140002809DB00F01F020C
:10143000012191404009800000F1E020C0F8001136
:1014400070470000F0B40E4B1B680C46C3F3022338
:10145000C3F10705042D00D90425191D072901D260
:10146000002300E0DB1E012606FA05F1491E21409B
:1014700099409E40761E16403143F0BC01F090BC6E
:101480000CED00E0064900F0070208684FF6FF0384
:10149000184040EA0220034A1043086070470000E9
:1014A0000CED00E00000FA052DE9F0470F460500BD
:1014B00061D0434E306800F00700B84209D230686E
:1014C00020F0070038433060306800F00700B84271
:1014D00051D128683B4C810712D5400703D560687D
:1014E00040F4E06060602878000703D5606840F44D
:1014F000605060606068A96820F0F0000843606098
:101500002878C00728D06868012810D021680228F0
:1015100010D0890700292EDA616821F00301014308
:101520006160FFF799FD804641F288390DE021683E
:101530008903EFE78901EDE7FFF78EFDA0EB0801D6
:10154000494502D90320BDE8F0876068696800F06A
:101550000C00B0EB810FEFD1306800F00700B8420B
:101560000BD9306820F0070038433060306800F055
:101570000700B84201D00120E5E72878400705D5EB
:101580006068E96820F4E06008436060287800073C
:1015900006D56068296920F4605040EAC1006060A7
:1015A00000F028F86168084AC1F30311515CC84093
:1015B0000649086006480068FFF7F8FE0020C2E709
:1015C0000020024000100240623B0008340000206E
:1015D0002C0000200448054900684968044AC1F30A
:1015E0000221515CC84070473400002000100240C6
:1015F000723B00080E4A51680E4801F00C03042BA0
:1016000011D0082B0FD10C48C1F38343C903C05C30
:101610000AD55168084AC1F34041921E515C054AFF
:101620005043B0FBF1F07047044948437047000055
:101630000010024000127A00523B000800093D00F1
:101640002DE9F84F040070D02078C04DC00749D074
:101650006868C0F38100012807D06868C0F3810082
:10166000022809D16868C00306D52868800339D5E7
:1016700060680028E7D035E06068B0F5803F0BD0A7
:1016800010B1B0F5A02F11D0286820F48030286068
:10169000286820F4802002E0286840F48030286028
:1016A000606890B1FFF7D8FC06460AE0286840F46D
:1016B00080202860F0E700BFFFF7CEFC801B642885
:1016C00073D828688003F7D50CE0FFF7C5FC064601
:1016D00005E000BFFFF7C0FC801B6428F0D8286835
:1016E0008003F7D420789A4E80074FF001094FF01D
:1016F000000839D5686810F00C0F07D06868C0F38F
:101700008100022809D16868C00306D428688007D0
:1017100014D52069012808D110E02069B0B1C6F8BD
:101720000090FFF799FC074605E00AE1FFF794FCFB
:10173000C01B0228C4D828688007F7D528686169CB
:1017400020F0F80040EAC10028600DE0C6F80080F3
:10175000FFF782FC074604E0FFF77EFCC01B02286F
:1017600023D828688007F7D4207800072CD579483B
:10177000A169D9B1C0F80090FFF76EFC074604E0FC
:10178000FFF76AFCC01B02280FD8686A8007F7D5EC
:1017900071484FF4FA510068B0FBF1F0009000BFBF
:1017A0000098411E0091FAD20EE080E0C0F800805F
:1017B000FFF752FC074604E0FFF74EFCC01B02286F
:1017C00075D8686A8007F7D42078400760D5E86943
:1017D0000027C00008D4E86940F08050E861E8695B
:1017E000012700F0805000905C480168C90513D4BF
:1017F0000168834641F480710160FFF72DFC824649
:1018000006E000BFFFF728FCA0EB0A0064284ED8D2
:10181000DBF80000C005F5D5E06801280AD008B162
:10182000052813D0286A20F001002862286A20F0D9
:10183000040002E0286A40F001002862E06841F2FA
:10184000883B98B1FFF708FC82460BE0286A40F01D
:1018500004002862EEE700BFFFF7FEFBA0EB0A01E1
:1018600059455AD8286A8007F6D50CE0FFF7F4FBF3
:10187000824605E0FFF7F0FBA0EB0A0159454CD882
:10188000286A8007F6D41FB1E86920F08050E8612B
:10189000E06988B36968C1F38101022944D0022854
:1018A000C6F8608004D0FFF7D7FB044638E034E088
:1018B000FFF7D2FB074604E0FFF7CEFBC01B022870
:1018C0002BD828688001F7D4206AB0F5803F05D175
:1018D0006868A16820F4003008436860D4E9080112
:1018E0000843696821F4741108436860C6F8609081
:1018F000FFF7B2FB044606E025E000BFFFF7ACFBB4
:10190000001B022809D828688001F7D51BE000BF1A
:10191000FFF7A2FB001B022802D90320BDE8F88FC5
:1019200028688001F4D40EE00128F7D06868226AA4
:1019300000F48031914204D1616A00F47010884251
:1019400001D00120EAE70020E8E700000010024093
:1019500000004242800442423400002000700040F7
:1019600070B5040009D0606A002540B12561656149
:10197000A56294F8510040B10CE0012070BD606890
:10198000B0F5827FF4D0E561F2E784F8505020464C
:1019900000F040F8022084F851002068016821F02E
:1019A00040010160A088218900F4827001F40441A3
:1019B0000843A18901F400610843217C01F0020180
:1019C0000843217D01F001010843218B01F40071DE
:1019D0000843217F01F03801084394F8201001F0FA
:1019E00080010843218D01F40051084321680860FB
:1019F000A069042101EA1040216848602068C1699B
:101A000021F40061C1616565012084F85100002066
:101A100070BD000030B585B000240094019402949C
:101A2000039400681549884225D11548C16941F4DD
:101A30008041C161C16901F480410491816941F033
:101A40000801816180690F4D00F0080004904FF497
:101A50002040009002200190032003906946284610
:101A6000FFF700FA4FF48040CDE9000469462846AC
:101A70000294FFF7F7F905B030BD000000380040D0
:101A800000100240000C01402DE9FF4F81B01D46BF
:101A9000934604464FF001090E9EFFF7DDFA074614
:101AA00094F851006168012806D0B1F5827F3CD1DD
:101AB000A168C9BB042838D10298002871D0BBF1B5
:101AC000000FFBD0002DF9D094F8500001282CD045
:101AD0004FF0010A84F850A094F85100042802D075
:101AE000052084F851004FF00008C4F85480C4F871
:101AF00038B0E587A58702992163E586A586C4F8F5
:101B00004080C4F8448020680168490603D4016815
:101B100041F040010160E068B0F5006F606808D0F6
:101B2000F0B3012D49D081E0FFE7022005B0BDE808
:101B3000F08F08B1012D39D1206B21680088C86071
:101B4000206B801C2063E08E401EE0862EE0206823
:101B5000816889070FD5E18E69B1B9F1010F0AD10A
:101B6000216B0988C160206B801C2063E08E401EC1
:101B7000E0864FF0000920688168C9070CD0E18F2A
:101B800051B1C068A16B0880A06B801CA063E08F7E
:101B9000401EE0874FF00109FFF75EFAC01B01E02D
:101BA0000BE067E0B04201D3701C50D1E08E0028FA
:101BB000CDD1E08F0028CAD13EE0206B21680078AB
:101BC0000873206B401C2063E08E401EE0862DE0F1
:101BD0002068816889070FD5E18E69B1B9F1010FDD
:101BE0000AD1216B09780173206B401C2063E08EC1
:101BF000401EE0864FF0000920688168C9070CD0BC
:101C0000E18F51B1C068A16B0870A06B401CA0634C
:101C1000E08F401EE0874FF00109FFF71DFAC01B5F
:101C2000B04202D3701C01D011E086B1E08E0028D2
:101C3000CED1E08F0028CBD13A463146204600F085
:101C4000BBFE50B12020606584F8508012E084F81B
:101C500051A084F85080032068E7A06818B9206874
:101C6000C1688068009084F851A084F85080606D4D
:101C70000028F1D0012059E710B5401EB0F1807F57
:101C800001D3012010BD4FF0E02460610F216017E7
:101C900001F086F80020A06107202061002010BD1F
:101CA00070B590F83C20012A26D0012480F83C40F1
:101CB000022280F83D2003685A689D6822F0700671
:101CC0000A6832435A600D4B02689A4208D0B2F15A
:101CD000804F05D00A4B9A4202D00A4B9A4204D157
:101CE000496825F080031943916080F83D40002148
:101CF00080F83C10084670BD022070BD002C0140E9
:101D0000000400400008004010B5040003D094F81F
:101D10003D0010B107E0012010BD002084F83C0018
:101D2000204600F01FF8022084F83D00211D2068A5
:101D300000F0F6FE012084F8460084F83E0084F8A6
:101D40003F0084F8400084F8410084F8420084F8A1
:101D5000430084F8440084F8450084F83D000020E6
:101D600010BD000008B500680649884208D1064841
:101D7000C16941F00201C161C06900F00200009038
:101D800008BD0000000400400010024070B5044689
:101D900090F83C000025012817D0012684F83C600B
:101DA000022084F83D002068826822F0770222F445
:101DB0007F4282600868502838D00DDC20284FD040
:101DC00005DC90B3102811D14AE0022070BD302804
:101DD00046D040280AD13BE060282FD070280DD093
:101DE000B0F5805F03D0B0F5005F12D0012584F814
:101DF0003D60002084F83C00284670BDCB68D1E9E6
:101E00000121206800F0D5FE2068816841F077014B
:101E100009E0CB68D1E90121206800F0CAFE206802
:101E2000816841F480418160E1E719E0CA6849684E
:101E3000206800F073FF5021206806E0CA684968F6
:101E4000206800F07CFF6021206800F0BCFECEE737
:101E5000CA684968206800F061FF40212068F4E703
:101E6000226801461046F0E700B585B000210091D8
:101E700001910291039100680B49884211D10B48EE
:101E8000816941F0040181618069694600F00400C4
:101E90000490802000900220019003900448FEF7F7
:101EA000E1FF05B000BD000000040040001002404A
:101EB0000008014070B5044690F83C0000260D462D
:101EC00001280FD0012084F83C006AB1042A1DD0FB
:101ED000082A2FD00C2A3FD00126002084F83C008D
:101EE000304670BD022070BD206800F075FE20688D
:101EF000816941F0080181612068816921F0040154
:101F00008161206881692A69114311E0206800F02D
:101F10008BFE2068816941F40061816120688169DC
:101F200021F480618161206881692A6941EA022186
:101F30008161D2E7206800F0A3FE2068C16941F00A
:101F40000801C1612068C16921F00401C1612068F4
:101F5000C1692A69114311E0206800F0BDFE2068C4
:101F6000C16941F40061C1612068C16921F48061E7
:101F7000C1612068C1692A6941EA0221C161ACE7F7
:101F800010B5040003D094F83D0010B107E0012023
:101F900010BD002084F83C00204600F01EF802200E
:101FA00084F83D00211D206800F0BAFD012084F86E
:101FB000460084F83E0084F83F0084F8400084F82E
:101FC000410084F8420084F8430084F8440084F817
:101FD000450084F83D00002010BD704710B5044650
:101FE000022249B104290ED0082913D094F84100E7
:101FF000012816D0012010BD94F83E000128F9D127
:1020000084F83E200FE094F83F000128F2D184F8D4
:102010003F2008E094F840000128EBD184F84020EC
:1020200001E084F841200122206800F0B5FD0F494D
:102030002068884203D1426C42F400424264206826
:10204000884208D0B0F1804F05D00949884202D0BB
:102050000849884204D1816801F00701062903D0AC
:10206000016841F001010160002010BD002C014019
:102070000004004000080040FEE701684A69D243BE
:1020800052050FD46FF480624A61002140F8301F7E
:10209000202242738173026942F0040202610173DB
:1020A0000120704700207047F8B50446C06A1E46FC
:1020B0000D461746082807D0012805D010F5803FA7
:1020C00002D0206B122804D12068016841F480718D
:1020D0000160134600224FF001112046009600F0E7
:1020E0005DF840B120680068C00502D54FF400706B
:1020F00020640320F8BD2069B0F5804F0ED0062083
:10210000216800EAD51040F0F000086133463A46F5
:102110000B49204600F08AF878B902E005F0FE008D
:1021200000E0E8B221680861054933463A46891F54
:10213000204600F07BF80028DCD00120F8BD00002C
:102140000800010070B516460D4604461EE0204604
:10215000FFF793FF08B1012070BD681C16D0FEF791
:102160007BFF801BA84200D885B920684069C04326
:1021700040070BD5002044F8300F20216173A07375
:10218000216941F0200121612073E4E72068406962
:10219000C0434007DBD4002070BD00002DE9F047AC
:1021A000984617460D460446C1F30746DDF82090D1
:1021B0002AE000BFB8F1FF3F26D0FEF74DFFA0EBAD
:1021C0000901414502D8B8F1000F1DD12068012E48
:1021D00016D0806925EA00000004000C12D000200F
:1021E000B84211D1002044F8300F20216173A07350
:1021F000216941F02001216120730120BDE8F087B1
:102200004069E7E70120EBE72068012E0AD08069EA
:1022100025EA00000004000C06D00020B842C9D016
:102220000020EBE74069F3E70120F7E72DE9F047ED
:10223000984616460D4604464FF000094FF0200A16
:10224000C1F3074723E020684069C043400515D427
:102250002068016841F40071016021686FF48060BA
:102260004861C4F8309084F83DA084F83E90216C19
:1022700041F00401216484F83C9021E0701C06D0F8
:10228000FEF7EAFEA0EB0800B04203D816B1012F1A
:102290001FD021E02068012F15D0806925EA0000B9
:1022A0000004000C18D000BF44F8309F84F80DA043
:1022B00084F80E90216941F02001216184F80C908E
:1022C0000120BDE8F087406925EA00000004000C09
:1022D000EAD12068406901E02068806925EA0000B1
:1022E0000004000CAFD1ECE770B516460D4604466D
:1022F0001EE02046FFF7C1FE08B1012070BD681C3A
:1023000016D0FEF7A9FE801BA84200D885B9206828
:102310004069C04300060BD5002044F8300F20214F
:102320006173A073216941F0200121612073E4E70A
:1023300020684069C0430006DBD4002070BD10B5A2
:10234000012001F0BFFBBDE810400120FEF7B8BC42
:1023500010B5332001F0B6FB322001F0B3FB28208A
:1023600001F0B0FB0C2001F0ADFB062001F0AAFB50
:10237000012001F0A7FBBDE810400120FEF7A0BC42
:10238000012805D0022805D1C031C8B201F09ABB9E
:102390008031FAE7704700001CB5024603A1684689
:1023A000FDF784FF684600F003F81CBD25640000BB
:1023B00070B50546002404E0285D01F0A5FB641C0F
:1023C000E4B22846FEF71AF8A042F5D870BD7CB5F5
:1023D0000446002529460D2000F0C4FC93202070FF
:1023E0002020607001A823460090022219460C208C
:1023F00000F04EF8010009D1225C401C5540C0B2EB
:102400000428F9D3205CA84200D0022108467CBDF4
:1024100010B5012211031048FEF719FE00F034F840
:102420008D212A2000F09EFC3E212B2000F09AFCFA
:102430001E212D2000F096FC00212C2000F092FCA3
:102440004021152000F08EFC3D21112000F08AFC77
:10245000BDE81040FEF78EB9000C01407CB50C467B
:10246000054607210D2000F07DFC257001A82346BC
:102470000090012219460C2000F00AF810B90199C9
:10248000102900D002207CBD0F21012000F06ABC81
:102490002DE9FF5F00270225DDF838A016468B46A0
:1024A0008146B8460C2805D0B9F10E0F05D1122788
:1024B000102001E077273020804647F0800102207D
:1024C00000F050FC80210420FEF711FB80210A203F
:1024D00000F0E9FA0021012000F044FC002405E0AE
:1024E0001BF80410092000F03DFC641CB442F7D333
:1024F0004946012000F036FCB9F10C0F03D18021D0
:102500000D2000F0D0FA4FF4FA66042000F036F9FE
:102510000446761E04D0E00702D114EA080FF4D076
:1025200080210D20FEF7E3FA36B1062000F026F9EF
:1025300010F01B0F04D0022504B02846BDE8F09F20
:1025400000253C40E00700D00125B9F10C0FF3D184
:102550000A2000F013F904460C2000F00FF910F0E7
:1025600007004FEAC40101D008390144CAF800103D
:1025700024B1102C04D91024002603E00124FBE729
:10258000002605E0092000F0F9F803998855761C2B
:10259000A642F7D3D0E700002DE9F04385B0002430
:1025A00031480094019402940394816941F0100130
:1025B0008161816901F010010491816941F020017C
:1025C0008161816901F020010491816941F0040178
:1025D0008161816901F004010491816941F0080180
:1025E00081618069DFF8848000F008000490002297
:1025F0000F214046FEF72BFDDFF8749041F20107F2
:10260000002239464846FEF722FD4FF40040009074
:1026100018480125CDE9010569461748FEF722FC57
:102620000F200226CDE90005CDE902466946404665
:10263000FEF718FC70208DE8310069464046FEF731
:1026400011FC00970396CDE9015469464846FEF710
:1026500009FC002211462820FEF7F4FE2820FEF790
:10266000E3FE05B0BDE8F083001002400008014021
:10267000000C014000002110001001400E4810B570
:102680000C4901604FF48271416000218160C1609A
:102690004FF400720161C0E90512C161016241623B
:1026A00081620A21C162FFF75BF9002801D072B68E
:1026B000FEE710BD003800408C00002010B58EB041
:1026C00000240794089409940A940B941C216846EA
:1026D0000C94FDF7B2FE1E481C4901600F21C0E9B1
:1026E000011444F61F61C0E903148461FFF70CFB79
:1026F00008B172B6FEE74FF48050079007A914485E
:10270000FFF744FB08B172B6FEE71148FFF738FC4B
:1027100008B172B6FEE70B940BA90D480C94FFF7B5
:10272000BFFA08B172B6FEE76020CDE9000402945A
:102730000422694606480494FFF7BCFB08B172B650
:10274000FEE70348FFF790FB0EB010BD0004004009
:10275000E4000020FEE7FEE77047000001B582B00C
:1027600064200090012301AA02A90348FFF78CF915
:102770009DF804000EBD00008C00002070B50D4EC9
:1027800004464FF48055002229463046FEF75FFC90
:102790007E2000EA440040F08000FFF7DFFF0020C9
:1027A000FFF7DCFF0446012229463046FEF74FFCC6
:1027B000204670BD000C014010B57E4C01220F2157
:1027C0002046FEF744FC002201212046FEF73FFC94
:1027D00010212046FEF736FC002861D0202120463B
:1027E000FEF730FC002866D040212046FEF72AFC88
:1027F00000286BD001220F212046FEF728FC002282
:1028000002212046FEF723FC10212046FEF71AFC89
:10281000002866D020212046FEF714FC00286BD04B
:1028200040212046FEF70EFC002871D001220F2126
:102830002046FEF70CFC002204212046FEF707FC90
:1028400010212046FEF7FEFB00286CD020212046F8
:10285000FEF7F8FB002873D040212046FEF7F2FB7C
:10286000002878D001220F212046FEF7F0FB00223D
:1028700008212046FEF7EBFB10212046FEF7E2FB85
:10288000002876D020212046FEF7DCFB00287BD0F4
:1028900040212046FEF7D6FB002869D0192010BD44
:1028A0001420FEF70DFA10212046FEF7CBFB00287E
:1028B000F9D0012010BD1420FEF702FA2021204695
:1028C000FEF7C0FB0028F9D0022010BD1420FEF74F
:1028D000F7F940212046FEF7B5FB0028F9D0032088
:1028E00010BD1420FEF7ECF910212046FEF7AAFBDC
:1028F0000028F9D0042010BD1420FEF7E1F92021B2
:102900002046FEF79FFB0028F9D0052010BDFFE709
:102910001420FEF7D5F940212046FEF793FB00284E
:10292000F9D00620F2E71420FEF7CAF9102120465C
:10293000FEF788FB0028F9D00720E7E700E00AE06F
:102940001420FEF7BDF920212046FEF77BFB00286E
:10295000F9D00820DAE71420FEF7B2F9402120462A
:10296000FEF770FB0028F9D00920CFE701E00BE06B
:1029700015E01420FEF7A4F910212046FEF762FBB3
:102980000028F9D01720C1E71420FEF799F920217B
:102990002046FEF757FB0028F9D00020B6E71420A8
:1029A000FEF78EF940212046FEF74CFB0028F9D0B7
:1029B0001820ABE700080140F8B515460E460B4657
:1029C000009204460122022100F010F840B933467B
:1029D000002280212046009500F008F8002804D04D
:1029E000606D40F0200060650320F8BD2DE9F843DC
:1029F0001E46914688460446089DFEF72DFB401B67
:102A0000351AFEF729FB074625480068C0F3CB308E
:102A1000684338E0701C37D0FEF71EFBC01BA8428D
:102A200003D215B1009860B32CE02068416821F012
:102A3000E00141606068B0F5827F0BD1A068B0F51D
:102A4000004F02D0B0F5806F04D12068016821F0FA
:102A500040010160A06AB0F5005F09D120680168FB
:102A600021F4005101602068016841F400510160C7
:102A7000012084F85100002084F850000320BDE8B4
:102A8000F8830025401E00902068816838EA010024
:102A900004D000214945BDD10020F0E70121F9E72C
:102AA00034000020704770B50C460546FFF766FEFF
:102AB00040EA04012846BDE8704000F053B9FEF733
:102AC0005BBC30B58FB028216846FDF7B6FC1421F9
:102AD0000AA8FDF7B2FC0121080400240491CDE905
:102AE0000010CDE908040294022507956846FEF718
:102AF000A7FD08B172B6FEE70F20CDE90A054FF435
:102B00008060CDE90C4000210AA80E94FEF7CCFCB1
:102B1000002801D072B6FEE70FB030BD704700004C
:102B2000F0B50268194B1A4C1A4D4FF08047984285
:102B300005D0B84203D0A04201D0A84203D122F070
:102B400070064A683243984205D0B84203D0A0428A
:102B500001D0A84203D122F44074CA6822434C69D0
:102B600022F08002224302608A68C2620A6882629E
:102B7000984201D109690163012141610169C907D5
:102B800003D0016921F001010161F0BD002C014079
:102B9000000400400008004010B501F01F030121AF
:102BA000046A99408C430462016A9A4011430162AD
:102BB00010BD10B5846842EA032224F47F440A431E
:102BC0002243826010BD826822F070020A4342F004
:102BD000070181607047000030B5036A026A22F085
:102BE000010202624268846924F073050C682C4378
:102BF00023F002058B682B430A4DA8420BD123F02A
:102C00000805CB6822F440722B434D6923F004037E
:102C100015438A692A4342608461496841630362BB
:102C200030BD0000002C014030B5026A036A23F079
:102C300010030362436884690D6824F4E64444EA9F
:102C400005248D6822F0200242EA05120B4DA842AD
:102C50000ED1CD6822F0800242EA05124D6923F4BC
:102C6000406343EA85038D6922F0400243EA85030D
:102C70004360846149688163026230BD002C014079
:102C800030B5036A026A22F4807202624268C46943
:102C900023F4007324F073050C682C438D6843EA19
:102CA00005230C4DA8420ED1CD6823F4006343EAFE
:102CB00005234D6922F4405242EA05128D6923F43E
:102CC000806342EA05124260C4614968C1630362DD
:102CD00030BD0000002C014030B5046A026A22F4C5
:102CE000805202624268C3690D6823F4E64343EAF6
:102CF00005238D6824F4005444EA0534064DA842A7
:102D000004D14D6922F4804242EA85124260C361D7
:102D100049680164046230BD002C014010B5036AAB
:102D2000046A24F001040462846924F0F00444EA93
:102D3000021423F00A020A438461026210BD10B536
:102D4000036A046A24F010040462846923F0A00377
:102D500024F4704444EA023243EA011182610162C0
:102D600010BDFEE72DE9F0410C4E0F4604464FF42E
:102D70008055002229463046FEF769F97E2000EA98
:102D80004400FFF7EBFC3846FFF7E8FC29463046E5
:102D9000BDE8F0410122FEF75AB90000000C0140E5
:102DA0000907090E002804DB00F1E02080F8001478
:102DB000704700F00F0000F1E02080F8141D70470C
:102DC0002DE9F05F83468A4614461046FDF716FB50
:102DD0000646FDF701FA81462146FDF7EBFA00258C
:102DE000A6F1010818E000215846FFF7C9FA2C4661
:102DF00005F110070AE000BF19F8040000F084FE96
:102E00000120FDF75DFF444508D0641CBC42F3DBA4
:102E10005046FDF755FF6D1CB542E4DD4846BDE860
:102E2000F05FFDF708BA00001CB5FEF7ADFAFFF73A
:102E300048FEFFF7B1FBFFF741FCFFF71FFCFA4824
:102E4000F8494FF0000B0160F849C0E9011B4FF44D
:102E50008042C0E903B2C0F814B0C0F818B0C0F89E
:102E60001CB0C0F820B0FEF7FDF808B172B6FEE75E
:102E7000FFF76EFAEC480421AC30FFF7AFF8FFF72C
:102E8000C7FA4FF4FA78DFF8A8A3EA4CDFF8A89362
:102E9000FFF755FA0120FDF713FF05210120FFF789
:102EA0006FFAE6A0FFF784FA45464046FDF708FFB3
:102EB000FFF782FC19286FD0E24E41F288370121DA
:102EC0000220FFF75DFAE0A0FFF772FA0022082166
:102ED0003046FEF7BCF810213046FEF7B3F840B993
:102EE0003846FDF7EDFE10213046FEF7ABF800281E
:102EF0004FD0FFF761FC1928E1D001210220FFF734
:102F00003FFAD5A0FFF754FA00210120FFF738FA65
:102F1000D6A0FFF74DFA01210846FFF731FAD9A0F4
:102F2000FFF746FADB4800F03DFCDA4906220C3197
:102F3000D948FDF78AFED749062201F10C00FDF7BA
:102F4000C7FD012829D0D34F143F3868401C386092
:102F5000C820FDF7B5FE02210846FFF711FACFA001
:102F6000FFF726FA2846FDF7ABFE38684FF001025E
:102F7000032811464E4648467DDDFEF768F864207A
:102F8000FDF79EFE002201213046FEF760F8002684
:102F90009CE0FDF7FBFBB7E7AFE0C820FDF790FE34
:102FA00004210220FFF7ECF9C0A0FFF701FAB949AC
:102FB0001439C1F800B001224F4611464E4638463A
:102FC000FEF745F86420FDF77BFE00220121304624
:102FD000FEF73DF8C820FDF773FE0122114630468A
:102FE000FEF735F86420FDF76BFE00220121304624
:102FF000FEF72DF82846FDF763FE00210220FFF7BB
:10300000BFF995A0FFF7D4F901210220FFF7B8F925
:10301000A9A0FFF7CDF9AC494FF4B470086040F2B5
:10302000DC50FDF74DFEFFF78AF90120FDF748FE61
:1030300001210846FFF7A4F9A4A0FFF7B9F964201D
:10304000FDF73EFE03210220FFF79AF9A3A0FFF748
:10305000AFF96420FDF734FE092606210220FFF7B0
:103060008FF93046FFF798F94FF47A70FDF728FE94
:10307000761EF2D500E07DE0934940F62E10086000
:10308000012211463E463846FDF7E1FF4FF49670A7
:10309000FDF716FE002201213046FDF7D8FFFFF7AD
:1030A0004EF90120FDF70CFE27E000BFFFF747F9BE
:1030B0002846FDF705FE03210120FFF761F98AA0EC
:1030C000FFF776F92846FDF7FBFD761C3868864247
:1030D000ECDB012211464E464846FDF7B8FF386842
:1030E00042F2107100EBD07040104843FDF7E8FD4C
:1030F000002201213046FDF7AAFF4B492620F4317A
:10310000FFF7ACF900287FF4C3AE4748F430FFF76F
:103110005EF90028F7D15046FDF7A5FD0646424965
:103120005C480522F4311038FDF7D2FC012825D087
:103130003D4958480522F4310B38FDF7C9FC0128F8
:103140006BD0394953480522F4311038FDF7C0FCE3
:10315000002863D0002534494E480522F4310B384D
:10316000FDF7B6FC00285AD0002005423FF490AE8F
:10317000002523E2FDF76BFF2846B7E70122114641
:103180004F464846FDF763FF6420FDF799FD002296
:1031900001213846FDF75BFFFFF7D1F8042101203C
:1031A000FFF7EEF853A0FFF703F94FF4FA60FDF7CD
:1031B00087FDFFF7C4F802210120FFF7E1F850A0D6
:1031C000FFF7F6F82846FDF77BFD17492620F43176
:1031D000FFF744F90028F8D11348F430FFF7F7F867
:1031E0000028F2D110492B480522F4311038FDF7A0
:1031F0006FFC012814D000250B4926480522F43124
:103200000B38FDF765FC012800D00020054308D0ED
:10321000FFF795F84FF47A707CE2E3E0BBE1BCE1A4
:1032200076E085E00058004038000020801A060053
:1032300000F4000800040108000C014057656C63AD
:103240006F6D650000080140205072657373204166
:103250006E79204B6579000020202020202020203E
:10326000202020202020202020202000202020207E
:10327000202020202020202020202020202020204E
:1032800020000000456E7465722050617373776F83
:10329000726400001400002000F80008496E636F9B
:1032A000727265637420212100000000436F727206
:1032B000656374202100000020446F6F7220556EFA
:1032C0006C6F636B6564000038040040446F6F727C
:1032D0002077696C6C206C6F636B0000696E202036
:1032E000207365636F6E64005761726E696E67214B
:1032F00021210000416464206361726400000000C9
:1033000050757420796F75722063617264000000DB
:10331000012571E704EB852005226946FDF795FC40
:103320000522FE496846FDF7D3FB012838D06D1C05
:10333000B542EFDB04EB86252846FDF773FC2846F3
:103340000522F649FDF792FC55465046FDF76AFC0A
:10335000761CF1B22846FDF7A4FC02210846FFF7CF
:103360000FF8EFA0FFF724F8012211463846FDF7C9
:103370006EFE6420FDF7A4FC002201213846FDF713
:1033800066FE6420FDF79CFC012211463846FDF7DD
:103390005EFE6420FDF794FC00220121384623E103
:1033A00001210220FEF7ECFFE1A0FFF701F8012266
:1033B00011463846FDF74BFE4FF49670FDF780FC42
:1033C000002201213846FDF742FE4FF4FA60FDF776
:1033D00077FC00210220FEF7D3FFAFF26C10FEF75E
:1033E000E7FFF2E6012211464F464846FDF72FFE61
:1033F0006420FDF765FC002201213846FDF727FE19
:10340000FEF79DFF03210120FEF7BAFFCCA0FEF7D7
:10341000CFFF4FF4FA60FDF753FCFEF790FF022157
:103420000120FEF7ADFFAFF22810FEF7C1FF2846DE
:10343000FDF746FCB9492620FFF710F80028F9D11E
:10344000B648FEF7C4FF0028F4D10522B349BF48AF
:10345000FDF73EFB01280DD00025BC480522AF49F1
:10346000401DFDF735FB012800D0002005437FF407
:10347000CFAE0FE00125F0E704EB85200522694679
:10348000FDF7E3FB05226946A448FDF721FB01286F
:1034900025D06D1CB542EFDB01210220FEF770FF45
:1034A000ABA0FEF785FF012211464D464846FDF7C9
:1034B000CEFD4FF49670FDF703FC00220121284653
:1034C000FDF7C5FD4FF4FA60FDF7FAFB012102207C
:1034D000FEF756FFAFF28020FEF76AFFAAE700254D
:1034E0000EE000BF04EB852005226946FDF7ADFB29
:1034F000052269468948FDF7EBFA012828D06D1CA2
:10350000B542EFDB00210220FEF73AFF94A0FEF760
:103510004FFF03210220FEF733FF96A0FEF748FF7E
:10352000012211464D464846FDF791FD6420FDF706
:10353000C7FB002201212846FDF789FD6420FDF725
:10354000BFFB012211462846FDF781FD642046E0BD
:1035500004EB8520FDF766FB771E11E08848052205
:1035600000EB852669463046FDF76FFB04EB8520AE
:1035700005226946FDF77AFB3046FDF753FB6D1CCB
:10358000BD42EBDB55465046FDF74CFBF9B22846F1
:10359000FDF787FBB6E70125DDE50120E5E500BF86
:1035A00004EB852005226946FDF74FFB05225B49A8
:1035B0006846FDF78DFA01281DD06D1CB542EFDB82
:1035C00001210220FEF7DCFE6EA0FEF7F1FE0122D3
:1035D00011464D464846FDF73AFD4FF49670FDF70B
:1035E0006FFB002201212846FDF731FD4FF4FA6000
:1035F000FDF766FB8BE003210220FEF7C1FE65A00C
:10360000FEF7D6FE012211464E464846FDF71FFD45
:103610006420FDF755FB002201213046FDF717FD20
:103620004A49091FC1F800B040F2DC552846FDF7B1
:1036300047FB012211463046FDF709FD6420FDF7E6
:103640003FFB002201213046FDF701FDC820FDF7B8
:1036500037FB012211463046FDF7F9FC6420FDF7E7
:103660002FFB002201213046FDF7F1FC0021022052
:10367000FEF786FEAFF22040FEF79AFE01210220FF
:10368000FEF77EFEAFF2D030FEF792FE444F4FF4CD
:10369000B47038602846FDF713FBFEF750FE01209A
:1036A000FDF70EFB01210846FEF76AFEAFF2E4309B
:1036B000FEF77EFE6420FDF703FB03210220FEF7E8
:1036C0005FFEAFF2E830FEF773FE6420FDF7F8FA14
:1036D000092506210220FEF753FE2846FEF75CFE70
:1036E0004FF47A70FDF7ECFA6D1EF2D540F62E100D
:1036F0003860012211463046FDF7A9FC4FF4967060
:10370000FDF7DEFA002201213046FDF7A0FCFEF7AE
:1037100016FE0120FDF7D4FAFFF7BABB2C010020FA
:103720005375636365737366756C6C2100000000EC
:103730004361726420776173206164646564210071
:1037400044656C6574652063617264000400002048
:1037500043617264206E6F7420666F756E64210021
:103760002020202020202020202020202020202059
:103770000000000044656C65746564202121000030
:103780000008010843617264206E6F7420666F75D3
:103790006E6400004361726420666F756E640000A1
:1037A000380400402DE9F0410025C44E07462C4660
:1037B00001220F213046FDF74AFC0022012130464C
:1037C000FDF745FC10213046FDF73CFCE0B96420D4
:1037D000FDF776FA10213046FDF734FC0028F9D0C9
:1037E00001207855601C6D1C85420BD1601DC1B253
:1037F0000220641CFEF7C4FDB1A0FEF7D9FD022033
:10380000FDF75EFA052D7DDC20213046FDF71AFC20
:10381000E0B96420FDF754FA20213046FDF712FC90
:103820000028F9D002207855601C6D1C85420BD110
:10383000601DC1B20220641CFEF7A2FDA0A0FEF72D
:10384000B7FD0220FDF73CFA052D5BDC4021304638
:10385000FDF7F8FBE0B96420FDF732FA402130466D
:10386000FDF7F0FB0028F9D003207855601C6D1C93
:1038700085420BD1601DC1B20220641CFEF780FDA1
:103880008FA0FEF795FD0220FDF71AFA052D39DC11
:1038900001220F213046FDF7DAFB002202213046DB
:1038A000FDF7D5FB10213046FDF7CCFBE0B96420D5
:1038B000FDF706FA10213046FDF7C4FB0028F9D0C9
:1038C00004207855601C6D1C85420BD1601DC1B26F
:1038D0000220641CFEF754FD79A0FEF769FD02206A
:1038E000FDF7EEF9052D0DDC20213046FDF7AAFB92
:1038F000F0B96420FDF7E4F920213046FDF7A2FB82
:10390000002800E092E0F7D005207855601C6D1C7F
:1039100085420BD1601DC1B20220641CFEF730FD50
:1039200067A0FEF745FD0220FDF7CAF9052D7DDCF5
:1039300040213046FDF786FBE0B96420FDF7C0F971
:1039400040213046FDF77EFB0028F9D0062078554F
:10395000601C6D1C85420BD1601DC1B20220641C2D
:10396000FEF70EFD56A0FEF723FD0220FDF7A8F995
:10397000052D5BDC01220F213046FDF768FB00229C
:1039800004213046FDF763FB10213046FDF75AFB5A
:10399000E0B96420FDF794F910213046FDF752FBA1
:1039A0000028F9D007207855601C6D1C85420BD18A
:1039B000601DC1B20220641CFEF7E2FC40A0FEF7CD
:1039C000F7FC0220FDF77CF9052D74DC2021304640
:1039D000FDF738FBE0B96420FDF772F9202130468D
:1039E000FDF730FB0028F9D008207855601C6D1CCD
:1039F00085420BD1601DC1B20220641CFEF7C0FCE1
:103A00002FA0FEF7D5FC0220FDF75AF9052D52DC58
:103A100040213046FDF716FBF0B96420FDF750F960
:103A200040213046FDF70EFB002800E043E0F7D0D0
:103A300009207855601C6D1C85420BD1601DC1B2F8
:103A40000220641CFEF79CFC1DA0FEF7B1FC0220C6
:103A5000FDF736F9052D2EDC01220F213046FDF74A
:103A6000F6FA002208213046FDF7F1FA202130460F
:103A7000FDF7E8FA00287FF49BAE6420FDF720F9FB
:103A800020213046FDF7DEFA0028F9D000207855D5
:103A9000601C6D1C85420BD1601DC1B20220641CEC
:103AA000FEF76EFC06A0FEF783FC0220FDF708F986
:103AB000052D7FF77DAEBDE8F081000000080140D4
:103AC0002A0000001CB500F0F0010A1D42F00802B7
:103AD0008DF8042041F008018DF805100C2141EA11
:103AE00000118DF80610082141EA00108DF807003A
:103AF0004FF0FF300090042301AA4E210148FDF74A
:103B000075FB1CBD380000201CB500F0F0014A1DFB
:103B100042F008028DF80420491C41F008018DF89C
:103B200005100D2141EA00118DF80610092141EA26
:103B300000108DF807004FF0FF300090042301AA19
:103B40004E210248FDF752FB1CBD0000380000204A
:103B5000010202030405060708090A0B0C0D0E0FEB
:103B6000101000000000000000000102030406071E
:103B70000809000000000102030400009C3B00084B
:103B8000000000203800000028010008D43B000895
:103B900038000020880700004401000800000000F1
:103BA0000AFB7C008D73DF0CF5550000000000005F
:103BB0000000000000000000000000000000000005
:103BC00000000000010000001000000000000000E4
:043BD00000127A0065
:04000005080000ED02
:00000001FF
